{
  "_format": "hh-sol-artifact-1",
  "contractName": "CircuitBreaker",
  "sourceName": "contracts/CircuitBreaker.sol",
  "abi": [
    {
      "inputs": [
        {
          "internalType": "address",
          "name": "_chainlinkFeed",
          "type": "address"
        },
        {
          "internalType": "address",
          "name": "_stableSwapPool",
          "type": "address"
        },
        {
          "internalType": "uint256",
          "name": "_signalAThresholdBps",
          "type": "uint256"
        },
        {
          "internalType": "uint256",
          "name": "_signalBThresholdBps",
          "type": "uint256"
        },
        {
          "internalType": "uint256",
          "name": "_signalCThresholdBps",
          "type": "uint256"
        },
        {
          "internalType": "uint256",
          "name": "_recoveryCooldown",
          "type": "uint256"
        },
        {
          "internalType": "uint256",
          "name": "_chainlinkStalePeriod",
          "type": "uint256"
        }
      ],
      "stateMutability": "nonpayable",
      "type": "constructor"
    },
    {
      "inputs": [],
      "name": "CircuitBreaker__InvalidThreshold",
      "type": "error"
    },
    {
      "inputs": [],
      "name": "CircuitBreaker__NotPaused",
      "type": "error"
    },
    {
      "inputs": [],
      "name": "CircuitBreaker__ZeroAddress",
      "type": "error"
    },
    {
      "inputs": [],
      "name": "CircuitBreaker__ZeroCooldown",
      "type": "error"
    },
    {
      "anonymous": false,
      "inputs": [
        {
          "indexed": false,
          "internalType": "uint256",
          "name": "pausedDuration",
          "type": "uint256"
        }
      ],
      "name": "BreakerRecovered",
      "type": "event"
    },
    {
      "anonymous": false,
      "inputs": [
        {
          "indexed": false,
          "internalType": "bool",
          "name": "signalA",
          "type": "bool"
        },
        {
          "indexed": false,
          "internalType": "bool",
          "name": "signalB",
          "type": "bool"
        },
        {
          "indexed": false,
          "internalType": "bool",
          "name": "signalC",
          "type": "bool"
        }
      ],
      "name": "BreakerTripped",
      "type": "event"
    },
    {
      "inputs": [],
      "name": "BPS_DENOMINATOR",
      "outputs": [
        {
          "internalType": "uint256",
          "name": "",
          "type": "uint256"
        }
      ],
      "stateMutability": "view",
      "type": "function"
    },
    {
      "inputs": [],
      "name": "chainlinkFeed",
      "outputs": [
        {
          "internalType": "contract IChainlinkAggregator",
          "name": "",
          "type": "address"
        }
      ],
      "stateMutability": "view",
      "type": "function"
    },
    {
      "inputs": [],
      "name": "chainlinkStalePeriod",
      "outputs": [
        {
          "internalType": "uint256",
          "name": "",
          "type": "uint256"
        }
      ],
      "stateMutability": "view",
      "type": "function"
    },
    {
      "inputs": [],
      "name": "checkBreaker",
      "outputs": [
        {
          "internalType": "bool",
          "name": "",
          "type": "bool"
        }
      ],
      "stateMutability": "nonpayable",
      "type": "function"
    },
    {
      "inputs": [],
      "name": "isPaused",
      "outputs": [
        {
          "internalType": "bool",
          "name": "",
          "type": "bool"
        }
      ],
      "stateMutability": "view",
      "type": "function"
    },
    {
      "inputs": [],
      "name": "lastTripTimestamp",
      "outputs": [
        {
          "internalType": "uint256",
          "name": "",
          "type": "uint256"
        }
      ],
      "stateMutability": "view",
      "type": "function"
    },
    {
      "inputs": [],
      "name": "lastVirtualPrice",
      "outputs": [
        {
          "internalType": "uint256",
          "name": "",
          "type": "uint256"
        }
      ],
      "stateMutability": "view",
      "type": "function"
    },
    {
      "inputs": [],
      "name": "owner",
      "outputs": [
        {
          "internalType": "address",
          "name": "",
          "type": "address"
        }
      ],
      "stateMutability": "view",
      "type": "function"
    },
    {
      "inputs": [],
      "name": "paused",
      "outputs": [
        {
          "internalType": "bool",
          "name": "",
          "type": "bool"
        }
      ],
      "stateMutability": "view",
      "type": "function"
    },
    {
      "inputs": [],
      "name": "previewBreaker",
      "outputs": [
        {
          "components": [
            {
              "internalType": "bool",
              "name": "paused",
              "type": "bool"
            },
            {
              "internalType": "bool",
              "name": "signalA",
              "type": "bool"
            },
            {
              "internalType": "bool",
              "name": "signalB",
              "type": "bool"
            },
            {
              "internalType": "bool",
              "name": "signalC",
              "type": "bool"
            },
            {
              "internalType": "uint256",
              "name": "lastTripTimestamp",
              "type": "uint256"
            },
            {
              "internalType": "uint256",
              "name": "recoveryTimestamp",
              "type": "uint256"
            }
          ],
          "internalType": "struct ICircuitBreaker.BreakerStatus",
          "name": "status",
          "type": "tuple"
        }
      ],
      "stateMutability": "view",
      "type": "function"
    },
    {
      "inputs": [],
      "name": "recoveryCooldown",
      "outputs": [
        {
          "internalType": "uint256",
          "name": "",
          "type": "uint256"
        }
      ],
      "stateMutability": "view",
      "type": "function"
    },
    {
      "inputs": [],
      "name": "signalAThresholdBps",
      "outputs": [
        {
          "internalType": "uint256",
          "name": "",
          "type": "uint256"
        }
      ],
      "stateMutability": "view",
      "type": "function"
    },
    {
      "inputs": [],
      "name": "signalBThresholdBps",
      "outputs": [
        {
          "internalType": "uint256",
          "name": "",
          "type": "uint256"
        }
      ],
      "stateMutability": "view",
      "type": "function"
    },
    {
      "inputs": [],
      "name": "signalCThresholdBps",
      "outputs": [
        {
          "internalType": "uint256",
          "name": "",
          "type": "uint256"
        }
      ],
      "stateMutability": "view",
      "type": "function"
    },
    {
      "inputs": [],
      "name": "stableSwapPool",
      "outputs": [
        {
          "internalType": "contract IStableSwapPool",
          "name": "",
          "type": "address"
        }
      ],
      "stateMutability": "view",
      "type": "function"
    },
    {
      "inputs": [],
      "name": "unpause",
      "outputs": [],
      "stateMutability": "nonpayable",
      "type": "function"
    }
  ],
  "bytecode": "0x61016060409080825234620001df5760e08162000faf80380380916200002682856200026f565b833981010312620001df576200003c81620002a9565b916200004b60208301620002a9565b828201516060840151608085015160a086015160c09096015190966001600160a01b03908116959491939186156200025e57169485156200024d578115801562000240575b62000215578215801562000233575b62000215578715801562000226575b6200021557861562000204576080528460a05260c05260e0526101009485526101209384528015600014620001f8575060046020610e10935b6101409485528351630176f71760e71b815292839182905afa908115620001ed57600091620001b0575b50600255600380546001600160a01b0319163317905551610cf09390929084620002bf853960805184818161028c01526106e5015260a05184818161044b0152818161077a0152610afe015260c05184818161022b0152610992015260e05184818161055401526108db0152518381816105cc01526107f501525182818161015f015281816103c001526105190152518181816104130152610a030152f35b90506020813d602011620001e4575b81620001ce602093836200026f565b81010312620001df57513862000111565b600080fd5b3d9150620001bf565b82513d6000823e3d90fd5b602060049193620000e7565b845163343ff46b60e11b8152600490fd5b8451632d9f79b760e11b8152600490fd5b50612710881015620000ae565b506127108310156200009f565b5061271082101562000090565b84516301f326b360e61b8152600490fd5b85516301f326b360e61b8152600490fd5b601f909101601f19168101906001600160401b038211908210176200029357604052565b634e487b7160e01b600052604160045260246000fd5b51906001600160a01b0382168203620001df5756fe6080604090808252600436101561001557600080fd5b600090813560e01c9081632b299951146105b55750806334f1b2a1146105965780633635e2d514610577578063393f58741461053c5780633b13b183146105015780633f4ba83a1461047a5780634362c0d1146104365780635c975abb146101f1578063658e7426146103fb578063798d0b87146102bb5780637dbdf1f5146102775780638da5cb5b1461024e5780639c6b264214610213578063b187bd26146101f1578063e1a45218146101d05763ee1b9e0d146100d357600080fd5b346101cd57806003193601126101cd5781519060c08201928284106001600160401b038511176101b95760c09381528183526020830190828252808401908382526060850191848352608086019385855260a08701958087526101346106c5565b50835460ff161580158c529215158552901515855215158652600154808852906101b35761018491507f0000000000000000000000000000000000000000000000000000000000000000906105ef565b8652825196511515875251151560208701525115159085015251151560608401525160808301525160a0820152f35b50610184565b634e487b7160e01b82526041600452602482fd5b80fd5b5090346101ed57816003193601126101ed57602090516127108152f35b5080fd5b5090346101ed57816003193601126101ed5760ff602092541690519015158152f35b5090346101ed57816003193601126101ed57602090517f00000000000000000000000000000000000000000000000000000000000000008152f35b5090346101ed57816003193601126101ed5760035490516001600160a01b039091168152602090f35b5090346101ed57816003193601126101ed57517f00000000000000000000000000000000000000000000000000000000000000006001600160a01b03168152602090f35b5090346101ed57816003193601126101ed5760ff6020926102da6106c5565b6002559091801590816103f4575b80156103ed575b1561035d5783549185831615610310575b505050505b541690519015158152f35b7f7587d3adc428fca2593eff4d8d4fab66e9e807bc5d907c868fa80701acc7def893600160609488191617865542600155875192158352151588830152151586820152a138808080610300565b5050508054828116806103b7575b610376575b50610305565b847f7a01ad5d9b862d7f79e307d16e4d1b18c84e8802cb96dd916f457460a8844401916103a560015442610612565b9085191684558551908152a138610370565b506103e56001547f0000000000000000000000000000000000000000000000000000000000000000906105ef565b42101561036b565b50816102ef565b50826102e8565b5090346101ed57816003193601126101ed57602090517f00000000000000000000000000000000000000000000000000000000000000008152f35b5090346101ed57816003193601126101ed57517f00000000000000000000000000000000000000000000000000000000000000006001600160a01b03168152602090f35b5090346101ed57816003193601126101ed576003546001600160a01b031633036104d25760207f7a01ad5d9b862d7f79e307d16e4d1b18c84e8802cb96dd916f457460a88444019160ff19845416845551838152a180f35b5162461bcd60e51b81526020600482015260096024820152682737ba1037bbb732b960b91b6044820152606490fd5b5090346101ed57816003193601126101ed57602090517f00000000000000000000000000000000000000000000000000000000000000008152f35b5090346101ed57816003193601126101ed57602090517f00000000000000000000000000000000000000000000000000000000000000008152f35b5090346101ed57816003193601126101ed576020906002549051908152f35b5090346101ed57816003193601126101ed576020906001549051908152f35b9050346101ed57816003193601126101ed576020907f00000000000000000000000000000000000000000000000000000000000000008152f35b919082018092116105fc57565b634e487b7160e01b600052601160045260246000fd5b919082039182116105fc57565b604081019081106001600160401b0382111761063a57604052565b634e487b7160e01b600052604160045260246000fd5b606081019081106001600160401b0382111761063a57604052565b90601f801991011681019081106001600160401b0382111761063a57604052565b51906001600160501b03821682036106a057565b600080fd5b81156106af570490565b634e487b7160e01b600052601260045260246000fd5b604051633fabe5a360e21b81526001600160a01b039060049060a08183817f000000000000000000000000000000000000000000000000000000000000000087165afa90811561086a57600090819282918391610a49575b506000841392831593610a40575b8315610a29575b505081156109f6575b501561095a5750806001935b61074f610ae0565b9091158015610952575b1561087657505060206001945b604051630176f71760e71b815293849182907f0000000000000000000000000000000000000000000000000000000000000000165afa91821561086a57600092610836575b50600254600093838215158061082d575b6107c557505050565b826107d39293949650610612565b90612710918281029281840414901517156108185750906107f3916106a5565b7f00000000000000000000000000000000000000000000000000000000000000001091565b601190634e487b7160e01b6000525260246000fd5b508281106107bc565b90916020823d602011610862575b816108516020938361066b565b810103126101cd57505190386107ab565b3d9150610844565b6040513d6000823e3d90fd5b90919250670de0b6b3a7640000918281029080820484149015171561093d579061089f916106a5565b6000828211156109185750670de0b6b3a763ffff19810190811161090357905b61271091828102928184041490151715610903578392916020917f000000000000000000000000000000000000000000000000000000000000000091041194610766565b601184634e487b7160e01b6000525260246000fd5b9082039082821161092a5750906108bf565b634e487b7160e01b815260118552602490fd5b601185634e487b7160e01b6000525260246000fd5b508015610759565b6305f5e100906000828211156109d157506305f5e0ff1981019081116109bc57905b612710918281029281840414901517156109bc577f0000000000000000000000000000000000000000000000000000000000000000910411928190610747565b601183634e487b7160e01b6000525260246000fd5b908203908282116109e357509061097c565b634e487b7160e01b815260118452602490fd5b610a01915042610612565b7f0000000000000000000000000000000000000000000000000000000000000000103861073b565b6001600160501b0390811691161091503880610732565b8215935061072b565b9350505060a0823d60a011610a99575b81610a6660a0938361066b565b810103126101cd5750610a788161068c565b602082015190610a8f60806060850151940161068c565b909192903861071d565b3d9150610a59565b3d15610adb573d906001600160401b03821161063a5760405191610acf601f8201601f19166020018461066b565b82523d6000602084013e565b606090565b604080516314f0597960e01b602080830191825260048352909290917f00000000000000000000000000000000000000000000000000000000000000006001600160a01b03169190610b318161061f565b6000809581925190855afa610b44610aa1565b9080610caf575b610c23575083808251938180878701634903b0d160e01b9788825282602482015260248152610b7981610650565b5190845afa94610b87610aa1565b94518781019182526001602482015260248152610ba381610650565b51915afa91610bb0610aa1565b9281610c1b575b5080610c10575b80610c05575b610bd15750505080918190565b82808296959394965192818101938491010301126101ed57519380835193818101948591010301126101cd57505160019291565b508282511015610bc4565b508281511015610bbe565b905038610bb7565b809250949390945182019185818585019403126101ed5782603f820112156101ed57855195808701908782106001600160401b03831117610c9b57528591606082019384116101cd575083809101915b838310610c8b57505050508251920151906001929190565b8251815291810191849101610c73565b634e487b7160e01b84526041600452602484fd5b508181511015610b4b56fea264697066735822122077810f6dd4a511a77f601b54eb981ce269aa2320b77109d50dd69b1b4ec7c97564736f6c63430008180033",
  "linkReferences": {},
  "deployedLinkReferences": {}
}