{
  "_format": "hh-sol-artifact-1",
  "contractName": "StrategyEngine",
  "sourceName": "contracts/StrategyEngine.sol",
  "abi": [
    {
      "inputs": [
        {
          "internalType": "address",
          "name": "vault_",
          "type": "address"
        },
        {
          "internalType": "address",
          "name": "policy_",
          "type": "address"
        },
        {
          "internalType": "address",
          "name": "oracle_",
          "type": "address"
        },
        {
          "internalType": "address",
          "name": "breaker_",
          "type": "address"
        },
        {
          "internalType": "address",
          "name": "sharpeTracker_",
          "type": "address"
        },
        {
          "internalType": "uint256",
          "name": "initialPrice_",
          "type": "uint256"
        }
      ],
      "stateMutability": "nonpayable",
      "type": "constructor"
    },
    {
      "inputs": [],
      "name": "StrategyEngine__BreakerPaused",
      "type": "error"
    },
    {
      "inputs": [],
      "name": "StrategyEngine__InvalidFlashAmount",
      "type": "error"
    },
    {
      "inputs": [],
      "name": "StrategyEngine__InvalidFlashAsset",
      "type": "error"
    },
    {
      "inputs": [],
      "name": "StrategyEngine__InvalidFlashCaller",
      "type": "error"
    },
    {
      "inputs": [],
      "name": "StrategyEngine__InvalidFlashData",
      "type": "error"
    },
    {
      "inputs": [],
      "name": "StrategyEngine__InvalidFlashPool",
      "type": "error"
    },
    {
      "inputs": [],
      "name": "StrategyEngine__NoActiveFlash",
      "type": "error"
    },
    {
      "inputs": [
        {
          "internalType": "bytes32",
          "name": "reason",
          "type": "bytes32"
        }
      ],
      "name": "StrategyEngine__NotExecutable",
      "type": "error"
    },
    {
      "inputs": [],
      "name": "StrategyEngine__YieldOverflow",
      "type": "error"
    },
    {
      "inputs": [],
      "name": "StrategyEngine__ZeroAddress",
      "type": "error"
    },
    {
      "inputs": [],
      "name": "StrategyEngine__ZeroPrice",
      "type": "error"
    },
    {
      "anonymous": false,
      "inputs": [
        {
          "indexed": true,
          "internalType": "address",
          "name": "executor",
          "type": "address"
        },
        {
          "indexed": true,
          "internalType": "enum StrategyEngine.RiskState",
          "name": "nextState",
          "type": "uint8"
        },
        {
          "indexed": false,
          "internalType": "uint256",
          "name": "price",
          "type": "uint256"
        },
        {
          "indexed": false,
          "internalType": "uint256",
          "name": "previousPrice",
          "type": "uint256"
        },
        {
          "indexed": false,
          "internalType": "uint256",
          "name": "volatilityBps",
          "type": "uint256"
        },
        {
          "indexed": false,
          "internalType": "uint256",
          "name": "targetAsterBps",
          "type": "uint256"
        },
        {
          "indexed": false,
          "internalType": "uint256",
          "name": "targetLpBps",
          "type": "uint256"
        },
        {
          "indexed": false,
          "internalType": "uint256",
          "name": "bountyBps",
          "type": "uint256"
        },
        {
          "indexed": false,
          "internalType": "bool",
          "name": "breakerPaused",
          "type": "bool"
        },
        {
          "indexed": false,
          "internalType": "int256",
          "name": "sharpeRatio",
          "type": "int256"
        },
        {
          "indexed": false,
          "internalType": "uint256",
          "name": "auctionElapsed",
          "type": "uint256"
        },
        {
          "indexed": false,
          "internalType": "uint256",
          "name": "bufferUtilizationBps",
          "type": "uint256"
        }
      ],
      "name": "DecisionProofV2",
      "type": "event"
    },
    {
      "anonymous": false,
      "inputs": [
        {
          "indexed": true,
          "internalType": "address",
          "name": "flashPool",
          "type": "address"
        },
        {
          "indexed": true,
          "internalType": "address",
          "name": "fromAdapter",
          "type": "address"
        },
        {
          "indexed": true,
          "internalType": "address",
          "name": "toAdapter",
          "type": "address"
        },
        {
          "indexed": false,
          "internalType": "uint256",
          "name": "principal",
          "type": "uint256"
        }
      ],
      "name": "FlashRebalanceRequested",
      "type": "event"
    },
    {
      "anonymous": false,
      "inputs": [
        {
          "indexed": true,
          "internalType": "address",
          "name": "flashPool",
          "type": "address"
        },
        {
          "indexed": true,
          "internalType": "address",
          "name": "fromAdapter",
          "type": "address"
        },
        {
          "indexed": true,
          "internalType": "address",
          "name": "toAdapter",
          "type": "address"
        },
        {
          "indexed": false,
          "internalType": "uint256",
          "name": "principal",
          "type": "uint256"
        },
        {
          "indexed": false,
          "internalType": "uint256",
          "name": "fee",
          "type": "uint256"
        }
      ],
      "name": "FlashRebalanceSettled",
      "type": "event"
    },
    {
      "inputs": [],
      "name": "BPS_DENOMINATOR",
      "outputs": [
        {
          "internalType": "uint256",
          "name": "",
          "type": "uint256"
        }
      ],
      "stateMutability": "view",
      "type": "function"
    },
    {
      "inputs": [],
      "name": "EWMA_ALPHA",
      "outputs": [
        {
          "internalType": "uint256",
          "name": "",
          "type": "uint256"
        }
      ],
      "stateMutability": "view",
      "type": "function"
    },
    {
      "inputs": [],
      "name": "canExecute",
      "outputs": [
        {
          "internalType": "bool",
          "name": "",
          "type": "bool"
        },
        {
          "internalType": "bytes32",
          "name": "",
          "type": "bytes32"
        }
      ],
      "stateMutability": "view",
      "type": "function"
    },
    {
      "inputs": [],
      "name": "circuitBreaker",
      "outputs": [
        {
          "internalType": "contract ICircuitBreaker",
          "name": "",
          "type": "address"
        }
      ],
      "stateMutability": "view",
      "type": "function"
    },
    {
      "inputs": [],
      "name": "currentState",
      "outputs": [
        {
          "internalType": "enum StrategyEngine.RiskState",
          "name": "",
          "type": "uint8"
        }
      ],
      "stateMutability": "view",
      "type": "function"
    },
    {
      "inputs": [],
      "name": "cycleCount",
      "outputs": [
        {
          "internalType": "uint256",
          "name": "",
          "type": "uint256"
        }
      ],
      "stateMutability": "view",
      "type": "function"
    },
    {
      "inputs": [],
      "name": "ewmaVolatilityBps",
      "outputs": [
        {
          "internalType": "uint256",
          "name": "",
          "type": "uint256"
        }
      ],
      "stateMutability": "view",
      "type": "function"
    },
    {
      "inputs": [],
      "name": "executeCycle",
      "outputs": [],
      "stateMutability": "nonpayable",
      "type": "function"
    },
    {
      "inputs": [
        {
          "internalType": "address",
          "name": "flashPool",
          "type": "address"
        },
        {
          "internalType": "address",
          "name": "fromAdapter",
          "type": "address"
        },
        {
          "internalType": "address",
          "name": "toAdapter",
          "type": "address"
        },
        {
          "internalType": "uint256",
          "name": "flashAmount",
          "type": "uint256"
        }
      ],
      "name": "executeCycleWithFlashRebalance",
      "outputs": [],
      "stateMutability": "nonpayable",
      "type": "function"
    },
    {
      "inputs": [],
      "name": "lastExecution",
      "outputs": [
        {
          "internalType": "uint256",
          "name": "",
          "type": "uint256"
        }
      ],
      "stateMutability": "view",
      "type": "function"
    },
    {
      "inputs": [],
      "name": "lastPrice",
      "outputs": [
        {
          "internalType": "uint256",
          "name": "",
          "type": "uint256"
        }
      ],
      "stateMutability": "view",
      "type": "function"
    },
    {
      "inputs": [],
      "name": "lastTotalAssets",
      "outputs": [
        {
          "internalType": "uint256",
          "name": "",
          "type": "uint256"
        }
      ],
      "stateMutability": "view",
      "type": "function"
    },
    {
      "inputs": [],
      "name": "owner",
      "outputs": [
        {
          "internalType": "address",
          "name": "",
          "type": "address"
        }
      ],
      "stateMutability": "view",
      "type": "function"
    },
    {
      "inputs": [
        {
          "internalType": "uint256",
          "name": "fee0",
          "type": "uint256"
        },
        {
          "internalType": "uint256",
          "name": "fee1",
          "type": "uint256"
        },
        {
          "internalType": "bytes",
          "name": "data",
          "type": "bytes"
        }
      ],
      "name": "pancakeV3FlashCallback",
      "outputs": [],
      "stateMutability": "nonpayable",
      "type": "function"
    },
    {
      "inputs": [],
      "name": "policy",
      "outputs": [
        {
          "internalType": "contract RiskPolicy",
          "name": "",
          "type": "address"
        }
      ],
      "stateMutability": "view",
      "type": "function"
    },
    {
      "inputs": [],
      "name": "previewAuction",
      "outputs": [
        {
          "internalType": "uint256",
          "name": "currentBountyBps",
          "type": "uint256"
        },
        {
          "internalType": "uint256",
          "name": "elapsedSeconds",
          "type": "uint256"
        },
        {
          "internalType": "uint256",
          "name": "remainingSeconds",
          "type": "uint256"
        },
        {
          "internalType": "uint256",
          "name": "minBountyBps",
          "type": "uint256"
        },
        {
          "internalType": "uint256",
          "name": "maxBountyBps",
          "type": "uint256"
        }
      ],
      "stateMutability": "view",
      "type": "function"
    },
    {
      "inputs": [],
      "name": "previewBreaker",
      "outputs": [
        {
          "components": [
            {
              "internalType": "bool",
              "name": "paused",
              "type": "bool"
            },
            {
              "internalType": "bool",
              "name": "signalA",
              "type": "bool"
            },
            {
              "internalType": "bool",
              "name": "signalB",
              "type": "bool"
            },
            {
              "internalType": "bool",
              "name": "signalC",
              "type": "bool"
            },
            {
              "internalType": "uint256",
              "name": "lastTripTimestamp",
              "type": "uint256"
            },
            {
              "internalType": "uint256",
              "name": "recoveryTimestamp",
              "type": "uint256"
            }
          ],
          "internalType": "struct ICircuitBreaker.BreakerStatus",
          "name": "",
          "type": "tuple"
        }
      ],
      "stateMutability": "view",
      "type": "function"
    },
    {
      "inputs": [],
      "name": "previewDecision",
      "outputs": [
        {
          "components": [
            {
              "internalType": "bool",
              "name": "executable",
              "type": "bool"
            },
            {
              "internalType": "bytes32",
              "name": "reason",
              "type": "bytes32"
            },
            {
              "internalType": "enum StrategyEngine.RiskState",
              "name": "nextState",
              "type": "uint8"
            },
            {
              "internalType": "uint256",
              "name": "price",
              "type": "uint256"
            },
            {
              "internalType": "uint256",
              "name": "previousPrice",
              "type": "uint256"
            },
            {
              "internalType": "uint256",
              "name": "volatilityBps",
              "type": "uint256"
            },
            {
              "internalType": "uint256",
              "name": "targetAsterBps",
              "type": "uint256"
            },
            {
              "internalType": "uint256",
              "name": "targetLpBps",
              "type": "uint256"
            },
            {
              "internalType": "uint256",
              "name": "bountyBps",
              "type": "uint256"
            },
            {
              "internalType": "bool",
              "name": "breakerPaused",
              "type": "bool"
            },
            {
              "internalType": "int256",
              "name": "meanYieldBps",
              "type": "int256"
            },
            {
              "internalType": "uint256",
              "name": "yieldVolatilityBps",
              "type": "uint256"
            },
            {
              "internalType": "int256",
              "name": "sharpeRatio",
              "type": "int256"
            },
            {
              "internalType": "uint256",
              "name": "auctionElapsedSeconds",
              "type": "uint256"
            },
            {
              "internalType": "uint256",
              "name": "bufferUtilizationBps",
              "type": "uint256"
            }
          ],
          "internalType": "struct StrategyEngine.DecisionPreviewV2",
          "name": "preview",
          "type": "tuple"
        }
      ],
      "stateMutability": "view",
      "type": "function"
    },
    {
      "inputs": [],
      "name": "previewSharpe",
      "outputs": [
        {
          "internalType": "int256",
          "name": "mean",
          "type": "int256"
        },
        {
          "internalType": "uint256",
          "name": "volatility",
          "type": "uint256"
        },
        {
          "internalType": "int256",
          "name": "sharpe",
          "type": "int256"
        }
      ],
      "stateMutability": "view",
      "type": "function"
    },
    {
      "inputs": [],
      "name": "priceOracle",
      "outputs": [
        {
          "internalType": "contract IPriceOracle",
          "name": "",
          "type": "address"
        }
      ],
      "stateMutability": "view",
      "type": "function"
    },
    {
      "inputs": [],
      "name": "riskScore",
      "outputs": [
        {
          "internalType": "uint256",
          "name": "",
          "type": "uint256"
        }
      ],
      "stateMutability": "view",
      "type": "function"
    },
    {
      "inputs": [],
      "name": "sharpeTracker",
      "outputs": [
        {
          "internalType": "contract SharpeTracker",
          "name": "",
          "type": "address"
        }
      ],
      "stateMutability": "view",
      "type": "function"
    },
    {
      "inputs": [],
      "name": "simulateCycle",
      "outputs": [
        {
          "internalType": "enum StrategyEngine.RiskState",
          "name": "nextState",
          "type": "uint8"
        },
        {
          "internalType": "uint256",
          "name": "asterBps",
          "type": "uint256"
        },
        {
          "internalType": "uint256",
          "name": "lpBps",
          "type": "uint256"
        },
        {
          "internalType": "uint256",
          "name": "bountyBps",
          "type": "uint256"
        }
      ],
      "stateMutability": "view",
      "type": "function"
    },
    {
      "inputs": [],
      "name": "timeUntilNextCycle",
      "outputs": [
        {
          "internalType": "uint256",
          "name": "",
          "type": "uint256"
        }
      ],
      "stateMutability": "view",
      "type": "function"
    },
    {
      "inputs": [
        {
          "internalType": "uint256",
          "name": "fee0",
          "type": "uint256"
        },
        {
          "internalType": "uint256",
          "name": "fee1",
          "type": "uint256"
        },
        {
          "internalType": "bytes",
          "name": "data",
          "type": "bytes"
        }
      ],
      "name": "uniswapV3FlashCallback",
      "outputs": [],
      "stateMutability": "nonpayable",
      "type": "function"
    },
    {
      "inputs": [],
      "name": "vault",
      "outputs": [
        {
          "internalType": "contract ProofVault",
          "name": "",
          "type": "address"
        }
      ],
      "stateMutability": "view",
      "type": "function"
    }
  ],
  "bytecode": "0x610120346200028c57601f620030e438819003918201601f1916830191906001600160401b0383118484101762000291578160c092859260409586528339810103126200028c576200005182620002a7565b6200005f60208401620002a7565b926200006d838201620002a7565b6200007b60608301620002a7565b9060a06200008c60808501620002a7565b9301516001600160a01b039485169690949087156200027b5781169182156200027b5781169283156200027b5781169384156200027b57169586156200026a578415620002595760805260a05260c05260e052610100928352600155600780546001600160a01b0319163317905551612e279182620002bd83396080518281816101530152818161070f015281816108270152818161092e01528181610a0901528181610a6f01528181610abc01528181610bc801528181611289015281816113100152818161136b015281816113ae015281816114bc0152818161194901528181611df80152612c14015260a05182818161033d015281816109ce015281816112da01528181611cce015281816120c0015281816121f6015281816123e2015281816125230152818161276401528181612845015281816128f5015281816129ab0152612b35015260c0518281816104c50152818161067c015281816111fe0152818161175a0152818161186f01526121a4015260e0518281816101e101528181610622015281816111a40152818161182001528181611baa0152611ff1015251818181610b0b015281816113f701528181611715015281816118f301528181611bff0152612c9e0152f35b855163eac1db7d60e01b8152600490fd5b8551631344b59960e01b8152600490fd5b8651631344b59960e01b8152600490fd5b600080fd5b634e487b7160e01b600052604160045260246000fd5b51906001600160a01b03821682036200028c5756fe608080604052600436101561001357600080fd5b60003560e01c9081630505c8c914611cbb57508063053f14da14611c9d5780630c3f6acf14611c7557806312266ab814611bd957806316efd94114611b945780631c21d6eb146117895780632630c12f146117445780632864ea1e146116ff5780632ae83f7714611153578063316fda0f14611135578063568efc071461111757806368899f43146110f957806378b90337146110d05780638da5cb5b146110a7578063930d6aa41461108c578063a1d48336146102f3578063b7fc3e511461106e578063bfd029911461104b578063c152b97a1461102e578063c633d89014610582578063d62eb8141461049f578063d750253214610315578063e1a45218146102f8578063e9cbafb0146102f3578063ee1b9e0d146101875763fbfa77cf1461013d57600080fd5b34610182576000366003190112610182576040517f00000000000000000000000000000000000000000000000000000000000000006001600160a01b03168152602090f35b600080fd5b3461018257600036600319011261018257600060a06040516101a881611f4a565b828152826020820152826040820152826060820152826080820152015260405163ee1b9e0d60e01b815260c08160048160018060a01b037f0000000000000000000000000000000000000000000000000000000000000000165afa80156102e757600090610257575b60c09060a06040519180511515835260208101511515602084015260408101511515604084015260608101511515606084015260808101516080840152015160a0820152f35b5060c0813d60c0116102df575b8161027160c09383611f93565b810103126101825760c09060a06040519161028b83611f4a565b61029481611fcf565b83526102a260208201611fcf565b60208401526102b360408201611fcf565b60408401526102c460608201611fcf565b606084015260808101516080840152015160a0820152610211565b3d9150610264565b6040513d6000823e3d90fd5b611d0a565b346101825760003660031901126101825760206040516127108152f35b346101825760003660031901126101825761032e612b16565b604051631b7b443360e31b81527f00000000000000000000000000000000000000000000000000000000000000006001600160a01b0316916020908183600481875afa9283156102e757600093610470575b50610389612992565b928181811061046257505060005b60405163b3360afb60e01b8152918383600481895afa9283156102e757600093610431575b50836004966040519788809263c5dcd61560e01b82525afa9384156102e757600094610401575b60a09650604051958652850152604084015260608301526080820152f35b80945086813d831161042a575b6104188183611f93565b810103126101825760a09551936103e3565b503d61040e565b9592508386813d831161045b575b6104498183611f93565b810103126101825794519194836103bc565b503d61043f565b61046b9161209a565b610397565b9092508181813d8311610498575b6104888183611f93565b8101031261018257519184610380565b503d61047e565b3461018257600036600319011261018257604051634c6afee560e11b81526020816004817f00000000000000000000000000000000000000000000000000000000000000006001600160a01b03165afa9081156102e75760009161054e575b608061051e8361051861051360015483612496565b6124e4565b90612510565b61052781612739565b61052f612992565b9161053d6040518095611cfd565b602084015260408301526060820152f35b90506020813d60201161057a575b8161056960209383611f93565b81010312610182575161051e6104fe565b3d915061055c565b34610182576080366003190112610182576004356001600160a01b03811690819003610182576024356001600160a01b03811690819003610182576044356001600160a01b0381169081900361018257606435918315610e51578215610e6357604051936105ef85611f2f565b84526020840152604083015260608201526040519063798d0b8760e01b8252600091602081600481600060018060a01b037f0000000000000000000000000000000000000000000000000000000000000000165af19081156102e757600091610ff4575b50610fe2576106606123c3565b9015610fca5750604051634c6afee560e11b81526020816004817f00000000000000000000000000000000000000000000000000000000000000006001600160a01b03165afa9081156102e757600091610f98575b506106c260015482612496565b60055480610f5457506005555b600554916106dd8383612510565b926106e784612739565b90916106f1612992565b936106fa612bf5565b604051636cd9630960e01b81526020816004817f00000000000000000000000000000000000000000000000000000000000000006001600160a01b03165afa9081156102e757600091610f12575b506001600160a01b031680610eb5575b5060ff600354166003811015610e9f576003881015610e9f578714610e7557606081015115610e635780516001600160a01b031615610e515760018060a01b0381511660018060a01b0360208301511660018060a01b03604084015116606084015191604051936020850152604084015260608301526080820152608081528060a08101106001600160401b0360a083011117610e3b5760a081016040819052815160208084019190912060065583516338d52e0f60e01b83526001600160a01b0390811693929060049082907f0000000000000000000000000000000000000000000000000000000000000000165afa80156102e757600090610e05575b604051630dfe168160e01b8152602081600481875afa9081156102e757600091610de6575b5060405163d21220a760e01b815290602082600481885afa9182156102e757600092610db5575b5060009283926001600160a01b03918216929091168203610d84575050506060840151935b805160208083015160408085015160609095015190519081526001600160a01b039485169491821693909116917f691053ba6fa7d80166bfdf34bde08ee92679a499123b0fa9b597a0fa2b9da16d91a4823b15610182576040516312439b2f60e21b81527f00000000000000000000000000000000000000000000000000000000000000006001600160a01b031660048201526024810194909452604484015260806064840152805160848401819052839160005b828110610d6c5750509181600060a482868383819984010152601f801991011681010301925af180156102e757610d58575b50600654610d465760405163c4aa739560e01b815287906020816004817f00000000000000000000000000000000000000000000000000000000000000006001600160a01b03165afa908115610d02578291610d11575b507f00000000000000000000000000000000000000000000000000000000000000006001600160a01b03163b15610d0d576040516398588aab60e01b81526004810186905260248101919091523360448201526064810186905260848101849052818160a481837f00000000000000000000000000000000000000000000000000000000000000006001600160a01b03165af18015610d0257610cea575b505060405163ea88021f60e01b8152916060836004817f00000000000000000000000000000000000000000000000000000000000000006001600160a01b03165afa928315610cdf578893610cbb575b50604051635655ac2360e11b8152946060866004817f00000000000000000000000000000000000000000000000000000000000000006001600160a01b03165afa918215610cb05788968a93610c7c575b5060015495610b52612b16565b94604051978a8952602089015260408801526060870152608086015260a08501528760c085015260e08401526101008301526101208201527fddfb47ac9e83f2146f2982df3da72024c75efa6f184beca25687a3114a7c27a76101403392a36001556040516278744560e21b81526020816004817f00000000000000000000000000000000000000000000000000000000000000006001600160a01b03165afa908115610c71578391610c3f575b5060025542825560ff801960035416911617600355600454906000198214610c2b5760018201600455005b634e487b7160e01b81526011600452602490fd5b90506020813d602011610c69575b81610c5a60209383611f93565b81010312610182575183610c00565b3d9150610c4d565b6040513d85823e3d90fd5b610c9f91935060603d606011610ca9575b610c978183611f93565b810190611fb4565b915050918a610b45565b503d610c8d565b6040513d8b823e3d90fd5b610cd591935060603d606011610ca957610c978183611f93565b9150509188610af4565b6040513d8a823e3d90fd5b610cf390611f65565b610cfe578688610aa4565b8680fd5b6040513d84823e3d90fd5b5080fd5b9150506020813d602011610d3e575b81610d2d60209383611f93565b810103126101825787905189610a06565b3d9150610d20565b604051630a9698b160e31b8152600490fd5b610d63919750611f65565b600095876109af565b602082820181015160a488840101528694500161097d565b919592506001600160a01b0390911603610da3576060810151906108c8565b6040516368f7fa7760e01b8152600490fd5b610dd891925060203d602011610ddf575b610dd08183611f93565b810190612dd2565b908d6108a3565b503d610dc6565b610dff915060203d602011610ddf57610dd08183611f93565b8c61087c565b5060203d602011610e34575b60a081610e23610e2f93838601611f93565b83010160a08301612dd2565b610857565b503d610e11565b634e487b7160e01b600052604160045260246000fd5b60405163a24d304f60e01b8152600490fd5b6040516309663f3b60e41b8152600490fd5b6040516302fb106760e01b81526e1393d7d49151d2535157d4d2125195608a1b6004820152602490fd5b634e487b7160e01b600052602160045260246000fd5b600080916040518260208201916315f08d7160e11b835260048152610ed981611f78565b51925af1503d15610f0d573d610eee81612bc6565b90610efc6040519283611f93565b8152600060203d92013e5b88610758565b610f07565b90506020813d602011610f4c575b81610f2d60209383611f93565b8101031261018257516001600160a01b03811681036101825789610748565b3d9150610f20565b6107d09180830292830403610f825761271091610f73610f7992612151565b9061208d565b046005556106cf565b634e487b7160e01b600052601160045260246000fd5b90506020813d602011610fc2575b81610fb360209383611f93565b810103126101825751836106b5565b3d9150610fa6565b602490604051906302fb106760e01b82526004820152fd5b6040516336e2660960e11b8152600490fd5b90506020813d602011611026575b8161100f60209383611f93565b810103126101825761102090611fcf565b83610653565b3d9150611002565b346101825760003660031901126101825760206040516107d08152f35b34610182576000366003190112610182576020611066612183565b604051908152f35b34610182576000366003190112610182576020600054604051908152f35b346101825760003660031901126101825760206110666120a7565b34610182576000366003190112610182576007546040516001600160a01b039091168152602090f35b346101825760003660031901126101825760406110eb611fdc565b825191151582526020820152f35b34610182576000366003190112610182576020600554604051908152f35b34610182576000366003190112610182576020600254604051908152f35b34610182576000366003190112610182576020600454604051908152f35b34610182576000366003190112610182576000606060405161117481611f2f565b828152826020820152826040820152015260018060a01b0360405163798d0b8760e01b81526020816004816000867f0000000000000000000000000000000000000000000000000000000000000000165af19081156102e7576000916116c5575b50610fe2576111e26123c3565b9015610fca5750604051634c6afee560e11b81526020816004817f000000000000000000000000000000000000000000000000000000000000000086165afa9081156102e757600091611693575b5061123d60015482612496565b6005548061166b57506005555b6005546112578183612510565b9261126184612739565b93909261126c612992565b611274612bf5565b604051636cd9630960e01b81526020816004817f000000000000000000000000000000000000000000000000000000000000000089165afa80156102e757859160009161162d575b5016806115d0575b5060405163c4aa739560e01b81526020816004817f000000000000000000000000000000000000000000000000000000000000000089165afa9081156102e75760009161159e575b50847f0000000000000000000000000000000000000000000000000000000000000000163b1561018257604051906398588aab60e01b8252866004830152602482015233604482015281606482015286608482015260008160a48183897f0000000000000000000000000000000000000000000000000000000000000000165af180156102e75761158f575b5060405163ea88021f60e01b81526060816004817f000000000000000000000000000000000000000000000000000000000000000089165afa9081156102e75760009161156d575b50604051635655ac2360e11b8152916060836004817f00000000000000000000000000000000000000000000000000000000000000008a165afa9283156102e757600093611549575b5060015492611436612b16565b9160038b1015610e9f576004996020998c97604051978a89528c89015260408801526060870152608086015260a0850152600060c085015260e08401526101008301526101208201527fddfb47ac9e83f2146f2982df3da72024c75efa6f184beca25687a3114a7c27a76101403392a36001556040516278744560e21b815292839182907f0000000000000000000000000000000000000000000000000000000000000000165afa9081156102e757600091611517575b506002554260005560ff8019600354169116176003556004546000198114610f8257600101600455005b90506020813d602011611541575b8161153260209383611f93565b810103126101825751826114ed565b3d9150611525565b61156391935060603d606011610ca957610c978183611f93565b9150509189611429565b611586915060603d606011610ca957610c978183611f93565b915050886113e0565b61159890611f65565b87611398565b90506020813d6020116115c8575b816115b960209383611f93565b8101031261018257518861130c565b3d91506115ac565b600080916040518260208201916315f08d7160e11b8352600481526115f481611f78565b51925af1503d15611628573d61160981612bc6565b906116176040519283611f93565b8152600060203d92013e5b876112c4565b611622565b9150506020813d602011611663575b8161164960209383611f93565b8101031261018257518481168103610182578490896112bc565b3d915061163c565b6107d09180830292830403610f825761271091610f7361168a92612151565b0460055561124a565b90506020813d6020116116bd575b816116ae60209383611f93565b81010312610182575182611230565b3d91506116a1565b90506020813d6020116116f7575b816116e060209383611f93565b81010312610182576116f190611fcf565b826111d5565b3d91506116d3565b34610182576000366003190112610182576040517f00000000000000000000000000000000000000000000000000000000000000006001600160a01b03168152602090f35b34610182576000366003190112610182576040517f00000000000000000000000000000000000000000000000000000000000000006001600160a01b03168152602090f35b346101825760003660031901126101825760006101c06040516117ab81611f13565b8281528260208201528260408201528260608201528260808201528260a08201528260c08201528260e08201528261010082015282610120820152826101408201528261016082015282610180820152826101a082015201526040516358c3de9360e11b815260208160048160018060a01b037f0000000000000000000000000000000000000000000000000000000000000000165afa9081156102e757600091611b5a575b5061185a6123c3565b604051634c6afee560e11b81526020816004817f00000000000000000000000000000000000000000000000000000000000000006001600160a01b03165afa9081156102e757600091611b28575b50600154936118ba6105138684612496565b906118c58284612510565b956118cf87612739565b6118da939193612992565b604051635655ac2360e11b8152949091906060866004817f00000000000000000000000000000000000000000000000000000000000000006001600160a01b03165afa9687156102e757600095600097600099611afd575b5060405163ea88021f60e01b81529a60608c6004817f00000000000000000000000000000000000000000000000000000000000000006001600160a01b03165afa9b8c156102e75760009c611ad9575b508c611ad0575b8615611aca57506d1094915052d15497d4105554d15160921b995b8d6119ad612b16565b9b6040519e8f906119bd82611f13565b151581526020015260031115610e9f576101e09d60408e015260608d015260808c015260a08b015260c08a015260e089015261010088015215156101208701526101408601526101608501526101808401526101a08301526101c08201526101c06040519180511515835260208101516020840152611a4460408201516040850190611cfd565b606081015160608401526080810151608084015260a081015160a084015260c081015160c084015260e081015160e084015261010081015161010084015261012081015115156101208401526101408101516101408401526101608101516101608401526101808101516101808401526101a08101516101a084015201516101c0820152f35b996119a4565b86159c50611989565b611af3919c5060603d606011610ca957610c978183611f93565b9150509a8e611982565b9196509750611b1c91965060603d606011610ca957610c978183611f93565b9691959096978d611932565b90506020813d602011611b52575b81611b4360209383611f93565b810103126101825751846118a8565b3d9150611b36565b90506020813d602011611b8c575b81611b7560209383611f93565b8101031261018257611b8690611fcf565b81611851565b3d9150611b68565b34610182576000366003190112610182576040517f00000000000000000000000000000000000000000000000000000000000000006001600160a01b03168152602090f35b3461018257600036600319011261018257604051635655ac2360e11b81526060816004817f00000000000000000000000000000000000000000000000000000000000000006001600160a01b03165afa9081156102e757606091600091600090600092611c54575b5060405192835260208301526040820152f35b915050611c6e9150823d8411610ca957610c978183611f93565b9084611c41565b3461018257600036600319011261018257602060ff60035416611c9b6040518092611cfd565bf35b34610182576000366003190112610182576020600154604051908152f35b34610182576000366003190112610182577f00000000000000000000000000000000000000000000000000000000000000006001600160a01b03168152602090f35b906003821015610e9f5752565b34610182576060366003190112610182576001600160401b036004604435828111610182573660238201121561018257808201359283116101825760248101928082019336602486011161018257600654946000958015611f0257611d6e84612bc6565b93604094611d7e86519182611f93565b81815288602080830193808886378301015251902003611ef257836080910312611eee57611dab90612be1565b90611db860448401612be1565b916084611dc760648601612be1565b9401359060018060a01b0380808093169516951695843303611ee0578760065587611df5602435833561208d565b927f00000000000000000000000000000000000000000000000000000000000000001691611e23848661208d565b92803b15611edc5788918360a492895196879586946320a3fc3960e21b86528501528d602485015289604485015260648401528a60848401525af18015611ed257611e9b575b50825191825260208201527f120f172f7e8758bc015058e47d166f38ee704b81038c58303929ec6a2984cdbf9190a480f35b96611ec97f120f172f7e8758bc015058e47d166f38ee704b81038c58303929ec6a2984cdbf94939298611f65565b96909192611e69565b84513d8a823e3d90fd5b8280fd5b8351633d326aa960e01b8152fd5b8480fd5b8251630a9698b160e31b81528590fd5b604051637609adcf60e01b81528690fd5b6101e081019081106001600160401b03821117610e3b57604052565b608081019081106001600160401b03821117610e3b57604052565b60c081019081106001600160401b03821117610e3b57604052565b6001600160401b038111610e3b57604052565b604081019081106001600160401b03821117610e3b57604052565b90601f801991011681019081106001600160401b03821117610e3b57604052565b90816060910312610182578051916040602083015192015190565b5190811515820361018257565b6040516358c3de9360e11b81526020816004817f00000000000000000000000000000000000000000000000000000000000000006001600160a01b03165afa9081156102e757600091612053575b5061203b576120376123c3565b9091565b6000906d1094915052d15497d4105554d15160921b90565b90506020813d602011612085575b8161206e60209383611f93565b810103126101825761207f90611fcf565b3861202a565b3d9150612061565b91908201809211610f8257565b91908203918211610f8257565b60008054604051633c3d045360e11b81526020816004817f00000000000000000000000000000000000000000000000000000000000000006001600160a01b03165afa908115610c7157839161211d575b506121029161208d565b80421015612119576121169150429061209a565b90565b5090565b90506020813d602011612149575b8161213860209383611f93565b81010312611edc57516121026120f8565b3d915061212b565b90611f409180830292830403610f8257565b811561216d570490565b634e487b7160e01b600052601260045260246000fd5b60408051634c6afee560e11b81526020906001600160a01b039082816004817f000000000000000000000000000000000000000000000000000000000000000086165afa9081156123b85760009161238b575b506121e661051360015483612496565b8451630d654c8f60e41b815290927f000000000000000000000000000000000000000000000000000000000000000016918482600481865afa91821561238057600092612351575b50111561234857835163256357d360e11b8152928084600481855afa93841561233d5760009461230e575b50838310156123045780600492865193848092637e12ad2560e11b82525afa9485156122fa57506000946122c6575b5050828111156122be578261229c9161209a565b9081606402916064830403610f8257612116926122b89161209a565b90612163565b505050600090565b8181959293953d83116122f3575b6122de8183611f93565b810103126122f0575051913880612288565b80fd5b503d6122d4565b513d6000823e3d90fd5b5050505050606490565b9080945081813d8311612336575b6123268183611f93565b8101031261018257519238612259565b503d61231c565b85513d6000823e3d90fd5b50505050606490565b9091508481813d8311612379575b6123698183611f93565b810103126101825751903861222e565b503d61235f565b86513d6000823e3d90fd5b90508281813d83116123b1575b6123a28183611f93565b810103126101825751386121d6565b503d612398565b84513d6000823e3d90fd5b60008054801561248557604051633c3d045360e11b81526020816004817f00000000000000000000000000000000000000000000000000000000000000006001600160a01b03165afa908115610c71578391612451575b506124249161208d565b421061243a575060019064524541445960d81b90565b906e434f4f4c444f574e5f41435449564560881b90565b90506020813d60201161247d575b8161246c60209383611f93565b81010312611edc575161242461241a565b3d915061245f565b5060019164524541445960d81b9150565b81156124dd5781808211156124cd576124ae9161209a565b905b61271091828102928184041490151715610f825761211691612163565b906124d79161209a565b906124b0565b5050600090565b6005548015612119576107d09180830292830403610f825761271091610f7361250c92612151565b0490565b60408051630d654c8f60e41b81529092917f00000000000000000000000000000000000000000000000000000000000000006001600160a01b0316916004916020919082828581885afa91821561272e576000926126ff575b5011156126f557845163256357d360e11b81529281848481845afa938415612380576000946126c6575b5090808392875193848092637e12ad2560e11b82525afa9586156122fa5750600095612695575b505060ff600354166003811015612680576002811461264d576001146125f957508110156125f25710156125ed57600090565b600190565b5050600290565b90829392101561264557603282111561263b5760311982019182116126265750905b10156125ed57600090565b601190634e487b7160e01b6000525260246000fd5b505060009061261b565b505050600290565b50603282111561267757603119820191821161262657505b8110156125f25710156125ed57600090565b50506000612665565b602182634e487b7160e01b6000525260246000fd5b8181969293963d83116126bf575b6126ad8183611f93565b810103126122f05750519238806125ba565b503d6126a3565b90938282813d83116126ee575b6126dd8183611f93565b810103126122f05750519281612593565b503d6126d3565b5050505050600290565b9091508281813d8311612727575b6127178183611f93565b8101031261018257519038612569565b503d61270d565b87513d6000823e3d90fd5b6003811015610e9f57600281146128e25760011461283257604051630295cdc560e41b8152602091907f00000000000000000000000000000000000000000000000000000000000000006001600160a01b0316908381600481855afa9081156102e7578490600092612804575b506040516358c8f6af60e11b81529192829060049082905afa9384156102e7576000946127d4575b50509190565b9080929450813d83116127fd575b6127ec8183611f93565b8101031261018257519138806127ce565b503d6127e2565b809250813d831161282b575b61281a8183611f93565b8101031261018257518360046127a6565b503d612810565b604051636f24873760e11b8152602091907f00000000000000000000000000000000000000000000000000000000000000006001600160a01b0316908381600481855afa9081156102e75784906000926128b4575b50604051630c5542cf60e11b81529192829060049082905afa9384156102e7576000946127d45750509190565b809250813d83116128db575b6128ca8183611f93565b810103126101825751836004612887565b503d6128c0565b50604051624763c760e11b8152602091907f00000000000000000000000000000000000000000000000000000000000000006001600160a01b0316908381600481855afa9081156102e7578490600092612964575b506040516333ec236960e21b81529192829060049082905afa9384156102e7576000946127d45750509190565b809250813d831161298b575b61297a8183611f93565b810103126101825751836004612937565b503d612970565b61299a612b16565b60408051631b7b443360e31b8152917f00000000000000000000000000000000000000000000000000000000000000006001600160a01b03169160208085600481875afa948515612b0b57600095612adc575b50815163b3360afb60e01b8152938185600481845afa948515612ad157600095612aa0575b50908060049284519384809263c5dcd61560e01b82525afa9283156122fa5750600092612a72575b505083821015612a6b5782612a4e9161209a565b818102918183041490151715610f825761211692610f7391612163565b9250505090565b90809250813d8311612a99575b612a898183611f93565b8101031261018257513880612a3a565b503d612a7f565b918091955082813d8311612aca575b612ab98183611f93565b810103126101825790519381612a12565b503d612aaf565b83513d6000823e3d90fd5b9080955081813d8311612b04575b612af48183611f93565b81010312610182575193386129ed565b503d612aea565b82513d6000823e3d90fd5b600080548015612bbe57604051633c3d045360e11b81526020816004817f00000000000000000000000000000000000000000000000000000000000000006001600160a01b03165afa908115610c71578391612b8a575b50612b779161208d565b804211156121195761211691504261209a565b90506020813d602011612bb6575b81612ba560209383611f93565b81010312611edc5751612b77612b6d565b3d9150612b98565b505060001990565b6001600160401b038111610e3b57601f01601f191660200190565b35906001600160a01b038216820361018257565b6040516278744560e21b81526004906001600160a01b039060208184817f000000000000000000000000000000000000000000000000000000000000000086165afa9081156102e757600091612da0575b5060025415612d9957600254906000828210612d36575081612c679161209a565b61271090818102918183041490151715612d215790612c8591612163565b905b60016001607f1b0382138015612d10575b612cff577f00000000000000000000000000000000000000000000000000000000000000001691823b15610182576024600092836040519586948593639d61dfdb60e01b8552600f0b908401525af180156102e757612cf45750565b612cfd90611f65565b565b60405163cba3c64b60e01b81528390fd5b5060016001607f1b03198212612c98565b601184634e487b7160e01b6000525260246000fd5b9190612d42908261209a565b61271090818102918183041490151715612d865790612d6091612163565b90600160ff1b8214612d73570390612c87565b634e487b7160e01b815260118452602490fd5b634e487b7160e01b835260118552602483fd5b6002555050565b906020823d602011612dca575b81612dba60209383611f93565b810103126122f057505138612c46565b3d9150612dad565b9081602091031261018257516001600160a01b0381168103610182579056fea2646970667358221220b2ffa0fdfbbd59baa49df4477234912db2231468c3c608fbc3d6fb40a7ec04ab64736f6c63430008180033",
  "linkReferences": {},
  "deployedLinkReferences": {}
}